{
  "transactions": [
    {
      "hash": "0x9ff8aa374b49dae3ba7f9f15d9092f3256810a73b20fb93aace372008fa3631d",
      "transactionType": "CALL",
      "contractName": null,
      "contractAddress": "0x55541731173dfc29b7cdb37ff6bb23d010f40242",
      "function": "registerUser(address,address,string,bool)",
      "arguments": [
        "0x4131811b8a4237712905650985A7474F8f92b18b",
        "0x4131811b8a4237712905650985A7474F8f92b18b",
        "Lamsy",
        "false"
      ],
      "transaction": {
        "from": "0x4131811b8a4237712905650985a7474f8f92b18b",
        "to": "0x55541731173dfc29b7cdb37ff6bb23d010f40242",
        "gas": "0x199c98",
        "value": "0x0",
        "input": "0x7da9faea0000000000000000000000004131811b8a4237712905650985a7474f8f92b18b0000000000000000000000004131811b8a4237712905650985a7474f8f92b18b0000000000000000000000000000000000000000000000000000000000000080000000000000000000000000000000000000000000000000000000000000000000000000000000000000000000000000000000000000000000000000000000054c616d7379000000000000000000000000000000000000000000000000000000",
        "nonce": "0x59",
        "chainId": "0x106a"
      },
      "additionalContracts": [],
      "isFixedGasLimit": false
    }
  ],
  "receipts": [
    {
      "status": "0x1",
      "cumulativeGasUsed": "0x133f04",
      "logs": [
        {
          "address": "0xdc7172a023b773c3db186a98fb4a60d2cb26311f",
          "topics": [
            "0xe7c1b2d0b84ad4708c19c3ff3ed646c52da7f280a9db5c15394cb332a161222d",
            "0x0000000000000000000000004131811b8a4237712905650985a7474f8f92b18b"
          ],
          "data": "0x00000000000000000000000000000000000000000000000000000000000001f4000000000000000000000000000000000000000000000000000000000000004000000000000000000000000000000000000000000000000000000000000000154e65772075736572207369676e757020626f6e75730000000000000000000000",
          "blockHash": "0xc508e7999fdfe22ee3337fba5412845d8c7517f35b5c7debcc6e64c32b1f6ddd",
          "blockNumber": "0x196ac50",
          "transactionHash": "0x9ff8aa374b49dae3ba7f9f15d9092f3256810a73b20fb93aace372008fa3631d",
          "transactionIndex": "0x1",
          "logIndex": "0x0",
          "removed": false
        },
        {
          "address": "0xbaa84e15a47da0eef5f187ef9446fb82633592b7",
          "topics": [
            "0xddf252ad1be2c89b69c2b068fc378daa952ba7f163c4a11628f55a4df523b3ef",
            "0x0000000000000000000000000000000000000000000000000000000000000000",
            "0x0000000000000000000000004131811b8a4237712905650985a7474f8f92b18b",
            "0x0000000000000000000000000000000000000000000000000000000000000001"
          ],
          "data": "0x",
          "blockHash": "0xc508e7999fdfe22ee3337fba5412845d8c7517f35b5c7debcc6e64c32b1f6ddd",
          "blockNumber": "0x196ac50",
          "transactionHash": "0x9ff8aa374b49dae3ba7f9f15d9092f3256810a73b20fb93aace372008fa3631d",
          "transactionIndex": "0x1",
          "logIndex": "0x1",
          "removed": false
        },
        {
          "address": "0xbaa84e15a47da0eef5f187ef9446fb82633592b7",
          "topics": [
            "0x1bab0443e8f8700e78317e338e5a0883283c12bd1692dbbb471f0c293770dbcc",
            "0x0000000000000000000000004131811b8a4237712905650985a7474f8f92b18b",
            "0x0000000000000000000000000000000000000000000000000000000000000000"
          ],
          "data": "0x00000000000000000000000000000000000000000000000000000000000000010000000000000000000000000000000000000000000000000000000000000001",
          "blockHash": "0xc508e7999fdfe22ee3337fba5412845d8c7517f35b5c7debcc6e64c32b1f6ddd",
          "blockNumber": "0x196ac50",
          "transactionHash": "0x9ff8aa374b49dae3ba7f9f15d9092f3256810a73b20fb93aace372008fa3631d",
          "transactionIndex": "0x1",
          "logIndex": "0x2",
          "removed": false
        },
        {
          "address": "0xbaa84e15a47da0eef5f187ef9446fb82633592b7",
          "topics": [
            "0xddf252ad1be2c89b69c2b068fc378daa952ba7f163c4a11628f55a4df523b3ef",
            "0x0000000000000000000000000000000000000000000000000000000000000000",
            "0x0000000000000000000000004131811b8a4237712905650985a7474f8f92b18b",
            "0x0000000000000000000000000000000000000000000000000000000000000002"
          ],
          "data": "0x",
          "blockHash": "0xc508e7999fdfe22ee3337fba5412845d8c7517f35b5c7debcc6e64c32b1f6ddd",
          "blockNumber": "0x196ac50",
          "transactionHash": "0x9ff8aa374b49dae3ba7f9f15d9092f3256810a73b20fb93aace372008fa3631d",
          "transactionIndex": "0x1",
          "logIndex": "0x3",
          "removed": false
        },
        {
          "address": "0xbaa84e15a47da0eef5f187ef9446fb82633592b7",
          "topics": [
            "0x1bab0443e8f8700e78317e338e5a0883283c12bd1692dbbb471f0c293770dbcc",
            "0x0000000000000000000000004131811b8a4237712905650985a7474f8f92b18b",
            "0x0000000000000000000000000000000000000000000000000000000000000002"
          ],
          "data": "0x00000000000000000000000000000000000000000000000000000000000000020000000000000000000000000000000000000000000000000000000000000000",
          "blockHash": "0xc508e7999fdfe22ee3337fba5412845d8c7517f35b5c7debcc6e64c32b1f6ddd",
          "blockNumber": "0x196ac50",
          "transactionHash": "0x9ff8aa374b49dae3ba7f9f15d9092f3256810a73b20fb93aace372008fa3631d",
          "transactionIndex": "0x1",
          "logIndex": "0x4",
          "removed": false
        },
        {
          "address": "0x55541731173dfc29b7cdb37ff6bb23d010f40242",
          "topics": [
            "0x05345a91f639184e946e5aac384b1e9f74ae9ab08d775a7deddb3180cebecb23",
            "0x0000000000000000000000004131811b8a4237712905650985a7474f8f92b18b",
            "0x0000000000000000000000004131811b8a4237712905650985a7474f8f92b18b"
          ],
          "data": "0x0000000000000000000000000000000000000000000000000000000068d25b80",
          "blockHash": "0xc508e7999fdfe22ee3337fba5412845d8c7517f35b5c7debcc6e64c32b1f6ddd",
          "blockNumber": "0x196ac50",
          "transactionHash": "0x9ff8aa374b49dae3ba7f9f15d9092f3256810a73b20fb93aace372008fa3631d",
          "transactionIndex": "0x1",
          "logIndex": "0x5",
          "removed": false
        }
      ],
      "logsBloom": "0x04000000000000004000000000000000000080000000000000000000000000000002000000000000000400000000000000002000000000000000000000040000040000000000000008000008000000000000002000040000000000000000000000000000020000000000002000000800000000000000000000000010000000000000000000000000000010000000000000000000000000000010000000000000000004000200000000001100000000000000000000000000200000000002000000000002002000008000000000000000000000000000000000000000000060000000000000000000000000000000000000400000008000002200000000000000",
      "type": "0x2",
      "transactionHash": "0x9ff8aa374b49dae3ba7f9f15d9092f3256810a73b20fb93aace372008fa3631d",
      "transactionIndex": "0x1",
      "blockHash": "0xc508e7999fdfe22ee3337fba5412845d8c7517f35b5c7debcc6e64c32b1f6ddd",
      "blockNumber": "0x196ac50",
      "gasUsed": "0x128adc",
      "effectiveGasPrice": "0xf433d",
      "from": "0x4131811b8a4237712905650985a7474f8f92b18b",
      "to": "0x55541731173dfc29b7cdb37ff6bb23d010f40242",
      "contractAddress": null,
      "l1BaseFeeScalar": "0x2af8",
      "l1BlobBaseFee": "0x1",
      "l1BlobBaseFeeScalar": "0x109618",
      "l1Fee": "0x4e47b",
      "l1GasPrice": "0x45a8",
      "l1GasUsed": "0x662"
    }
  ],
  "libraries": [],
  "pending": [],
  "returns": {
    "0": {
      "internal_type": "address",
      "value": "0x55541731173DFC29b7CdB37ff6BB23d010f40242"
    }
  },
  "timestamp": 1758616449424,
  "chain": 4202,
  "commit": "05d9ad1"
}