{
  "transactions": [
    {
      "hash": "0x5b9c446ee364ac9a305253276034c0c94c3c330104140a7726ad20a0ef188d6a",
      "transactionType": "CALL",
      "contractName": null,
      "contractAddress": "0xca3b36b55e3a0be7fbb7c7789d590d81ba55c578",
      "function": "grantRole(bytes32,address)",
      "arguments": [
        "0xa49807205ce4d355092ef5a8a18f56e8913cf4a201fbe287825b095693c21775",
        "0x55541731173DFC29b7CdB37ff6BB23d010f40242"
      ],
      "transaction": {
        "from": "0x4131811b8a4237712905650985a7474f8f92b18b",
        "to": "0xca3b36b55e3a0be7fbb7c7789d590d81ba55c578",
        "gas": "0xb701",
        "value": "0x0",
        "input": "0x2f2ff15da49807205ce4d355092ef5a8a18f56e8913cf4a201fbe287825b095693c2177500000000000000000000000055541731173dfc29b7cdb37ff6bb23d010f40242",
        "nonce": "0x57",
        "chainId": "0x106a"
      },
      "additionalContracts": [],
      "isFixedGasLimit": false
    },
    {
      "hash": "0x66eeb3b31cbf0fce3c413e332d110919294bd2ef3061e5d0d2500dfc90efc049",
      "transactionType": "CALL",
      "contractName": null,
      "contractAddress": "0xca3b36b55e3a0be7fbb7c7789d590d81ba55c578",
      "function": "grantRole(bytes32,address)",
      "arguments": [
        "0x241ecf16d79d0f8dbfb92cbc07fe17840425976cf0667f022fe9877caa831b08",
        "0x55541731173DFC29b7CdB37ff6BB23d010f40242"
      ],
      "transaction": {
        "from": "0x4131811b8a4237712905650985a7474f8f92b18b",
        "to": "0xca3b36b55e3a0be7fbb7c7789d590d81ba55c578",
        "gas": "0x12e61",
        "value": "0x0",
        "input": "0x2f2ff15d241ecf16d79d0f8dbfb92cbc07fe17840425976cf0667f022fe9877caa831b0800000000000000000000000055541731173dfc29b7cdb37ff6bb23d010f40242",
        "nonce": "0x58",
        "chainId": "0x106a"
      },
      "additionalContracts": [],
      "isFixedGasLimit": false
    }
  ],
  "receipts": [
    {
      "status": "0x1",
      "cumulativeGasUsed": "0x138a7",
      "logs": [],
      "logsBloom": "0x00000000000000000000000000000000000000000000000000000000000000000000000000000000000000000000000000000000000000000000000000000000000000000000000000000000000000000000000000000000000000000000000000000000000000000000000000000000000000000000000000000000000000000000000000000000000000000000000000000000000000000000000000000000000000000000000000000000000000000000000000000000000000000000000000000000000000000000000000000000000000000000000000000000000000000000000000000000000000000000000000000000000000000000000000000000",
      "type": "0x2",
      "transactionHash": "0x5b9c446ee364ac9a305253276034c0c94c3c330104140a7726ad20a0ef188d6a",
      "transactionIndex": "0x1",
      "blockHash": "0xf93d12d836784fde99a4c4821092e283d5a8cbe3c489611e7a2bec3eb2c1c0bf",
      "blockNumber": "0x196ac3a",
      "gasUsed": "0x847f",
      "effectiveGasPrice": "0xf433d",
      "from": "0x4131811b8a4237712905650985a7474f8f92b18b",
      "to": "0xca3b36b55e3a0be7fbb7c7789d590d81ba55c578",
      "contractAddress": null,
      "l1BaseFeeScalar": "0x2af8",
      "l1BlobBaseFee": "0x1",
      "l1BlobBaseFeeScalar": "0x109618",
      "l1Fee": "0x3bd04",
      "l1GasPrice": "0x33f1",
      "l1GasUsed": "0x68a"
    },
    {
      "status": "0x1",
      "cumulativeGasUsed": "0x21393",
      "logs": [
        {
          "address": "0xca3b36b55e3a0be7fbb7c7789d590d81ba55c578",
          "topics": [
            "0x2f8788117e7eff1d82e926ec794901d17c78024a50270940304540a733656f0d",
            "0x241ecf16d79d0f8dbfb92cbc07fe17840425976cf0667f022fe9877caa831b08",
            "0x00000000000000000000000055541731173dfc29b7cdb37ff6bb23d010f40242",
            "0x0000000000000000000000004131811b8a4237712905650985a7474f8f92b18b"
          ],
          "data": "0x",
          "blockHash": "0xf93d12d836784fde99a4c4821092e283d5a8cbe3c489611e7a2bec3eb2c1c0bf",
          "blockNumber": "0x196ac3a",
          "transactionHash": "0x66eeb3b31cbf0fce3c413e332d110919294bd2ef3061e5d0d2500dfc90efc049",
          "transactionIndex": "0x2",
          "logIndex": "0x0",
          "removed": false
        }
      ],
      "logsBloom": "0x01000004000000000000000000000000000000000000000000000000000000000000000000000000000000000000000000000000000000000000000000000000000000000020000000000040000000000000000100000000000000000000000000400000000000000004002000000000000000000000000000000000000000000000000000000000000000000000000000000000000000000000000000000000000000000000000000001000000000000000000000000000001000000002000000000000000000000000020000000000000000000000000100000000000000000000000000000000000000000000000000000000000010000000002000000000",
      "type": "0x2",
      "transactionHash": "0x66eeb3b31cbf0fce3c413e332d110919294bd2ef3061e5d0d2500dfc90efc049",
      "transactionIndex": "0x2",
      "blockHash": "0xf93d12d836784fde99a4c4821092e283d5a8cbe3c489611e7a2bec3eb2c1c0bf",
      "blockNumber": "0x196ac3a",
      "gasUsed": "0xdaec",
      "effectiveGasPrice": "0xf433d",
      "from": "0x4131811b8a4237712905650985a7474f8f92b18b",
      "to": "0xca3b36b55e3a0be7fbb7c7789d590d81ba55c578",
      "contractAddress": null,
      "l1BaseFeeScalar": "0x2af8",
      "l1BlobBaseFee": "0x1",
      "l1BlobBaseFeeScalar": "0x109618",
      "l1Fee": "0x3c4aa",
      "l1GasPrice": "0x33f1",
      "l1GasUsed": "0x697"
    }
  ],
  "libraries": [],
  "pending": [],
  "returns": {
    "0": {
      "internal_type": "address",
      "value": "0x55541731173DFC29b7CdB37ff6BB23d010f40242"
    }
  },
  "timestamp": 1758616405512,
  "chain": 4202,
  "commit": "05d9ad1"
}